{
  "contractName": "Gaming",
  "abi": [
    {
      "inputs": [],
      "payable": true,
      "stateMutability": "payable",
      "type": "constructor"
    },
    {
      "anonymous": false,
      "inputs": [
        {
          "indexed": false,
          "internalType": "address",
          "name": "player",
          "type": "address"
        },
        {
          "indexed": false,
          "internalType": "uint256",
          "name": "wager",
          "type": "uint256"
        },
        {
          "indexed": false,
          "internalType": "uint256",
          "name": "mysteryNumber",
          "type": "uint256"
        }
      ],
      "name": "PlayerLost",
      "type": "event"
    },
    {
      "anonymous": false,
      "inputs": [
        {
          "indexed": false,
          "internalType": "address",
          "name": "player",
          "type": "address"
        },
        {
          "indexed": false,
          "internalType": "uint256",
          "name": "wager",
          "type": "uint256"
        },
        {
          "indexed": false,
          "internalType": "uint256",
          "name": "mysteryNumber",
          "type": "uint256"
        }
      ],
      "name": "PlayerWon",
      "type": "event"
    },
    {
      "constant": true,
      "inputs": [
        {
          "internalType": "uint256",
          "name": "number",
          "type": "uint256"
        },
        {
          "internalType": "uint256",
          "name": "display",
          "type": "uint256"
        },
        {
          "internalType": "bool",
          "name": "guess",
          "type": "bool"
        }
      ],
      "name": "determineWinner",
      "outputs": [
        {
          "internalType": "bool",
          "name": "",
          "type": "bool"
        }
      ],
      "payable": false,
      "stateMutability": "pure",
      "type": "function"
    },
    {
      "constant": false,
      "inputs": [
        {
          "internalType": "uint256",
          "name": "display",
          "type": "uint256"
        },
        {
          "internalType": "bool",
          "name": "guess",
          "type": "bool"
        },
        {
          "internalType": "uint256",
          "name": "wager",
          "type": "uint256"
        }
      ],
      "name": "winOrLose",
      "outputs": [
        {
          "internalType": "bool",
          "name": "",
          "type": "bool"
        }
      ],
      "payable": true,
      "stateMutability": "payable",
      "type": "function"
    },
    {
      "constant": false,
      "inputs": [],
      "name": "withdrawFunds",
      "outputs": [],
      "payable": false,
      "stateMutability": "nonpayable",
      "type": "function"
    }
  ],
  "bytecode": "0x6080604052336000806101000a81548173ffffffffffffffffffffffffffffffffffffffff021916908373ffffffffffffffffffffffffffffffffffffffff1602179055506001600060146101000a81548160ff02191690831515021790555061058b8061006e6000396000f3fe6080604052600436106100345760003560e01c8063171273a51461003957806324600fc3146100a2578063c3488937146100b9575b600080fd5b34801561004557600080fd5b506100886004803603606081101561005c57600080fd5b810190808035906020019092919080359060200190929190803515159060200190929190505050610115565b604051808215151515815260200191505060405180910390f35b3480156100ae57600080fd5b506100b7610162565b005b6100fb600480360360608110156100cf57600080fd5b810190808035906020019092919080351515906020019092919080359060200190929190505050610294565b604051808215151515815260200191505060405180910390f35b600060011515821515141561013a5782841015610135576001905061015b565b61015a565b6000151582151514156101595782841115610158576000905061015b565b5b5b5b9392505050565b60004790506000809054906101000a900473ffffffffffffffffffffffffffffffffffffffff1673ffffffffffffffffffffffffffffffffffffffff163373ffffffffffffffffffffffffffffffffffffffff1614610229576040517f08c379a00000000000000000000000000000000000000000000000000000000081526004018080602001828103825260158152602001807f596f7520617265206e6f7420746865206f776e6572000000000000000000000081525060200191505060405180910390fd5b6000809054906101000a900473ffffffffffffffffffffffffffffffffffffffff1673ffffffffffffffffffffffffffffffffffffffff166108fc829081150290604051600060405180830381858888f19350505050158015610290573d6000803e3d6000fd5b5050565b600060011515600060149054906101000a900460ff161515146102b657600080fd5b343373ffffffffffffffffffffffffffffffffffffffff163111610342576040517f08c379a00000000000000000000000000000000000000000000000000000000081526004018080602001828103825260128152602001807f496e73756666696369656e742066756e6473000000000000000000000000000081525060200191505060405180910390fd5b600061034c610535565b9050600061035b828787610115565b90506000600160003373ffffffffffffffffffffffffffffffffffffffff1673ffffffffffffffffffffffffffffffffffffffff168152602001908152602001600020905060011515821515141561048a5780600301600081548092919060010191905055503373ffffffffffffffffffffffffffffffffffffffff166108fc600287029081150290604051600060405180830381858888f1935050505015801561040a573d6000803e3d6000fd5b507faebbe3d3846c4aefb8c05b638e2f00a16b7c1ecbfcd855ef050d2ac61b2f9d27333485604051808473ffffffffffffffffffffffffffffffffffffffff1673ffffffffffffffffffffffffffffffffffffffff168152602001838152602001828152602001935050505060405180910390a16001935050505061052e565b60001515821515141561052a5780600401600081548092919060010191905055507fda2742f9f6479139c2daec32cda5460fa18be63de6a9e007f23a323885ba3533333485604051808473ffffffffffffffffffffffffffffffffffffffff1673ffffffffffffffffffffffffffffffffffffffff168152602001838152602001828152602001935050505060405180910390a16000935050505061052e565b5050505b9392505050565b6000806001600a600143034060001c8161054b57fe5b06019050809150509056fea265627a7a72315820059a20d49d1aed197d6ce6de57b42ac858d16e12fac4e55f1157080aa53cd71364736f6c63430005100032",
  "source": "pragma solidity >=0.5.0;\r\n\r\ncontract Gaming {\r\n    /* Our Online gaming contract */\r\n    address payable owner;\r\n    bool online;\r\n\r\n\r\n    struct Player {\r\n        address player;\r\n        string playerName;\r\n        uint playerBalance;\r\n        uint wins;\r\n        uint losses;\r\n    }\r\n\r\n    mapping (address => Player) players;\r\n    \r\n    \r\n    constructor() public payable {\r\n        owner = msg.sender;\r\n        online = true;\r\n    }\r\n\r\n    event PlayerWon(address player, uint wager, uint mysteryNumber);\r\n    event PlayerLost(address player, uint wager, uint mysteryNumber);\r\n\r\n    function mysteryNumber() internal view returns (uint) {\r\n        uint randomNumber = uint(blockhash(block.number-1))%10 + 1;\r\n        return randomNumber;\r\n    }\r\n\r\n    function determineWinner(uint number, uint display, bool guess) public pure returns (bool) {\r\n        if (guess == true) {\r\n            if (number < display) {\r\n                return true;\r\n            }\r\n        } else if (guess == false) {\r\n            if (number > display) {\r\n                return false;\r\n            }\r\n        }\r\n    }\r\n\r\n    function winOrLose(uint display, bool guess, uint wager) external payable returns (bool) {\r\n        /* Use true for a higher guess, false for a lower guess */\r\n        require(online == true);\r\n        require(msg.sender.balance > msg.value, \"Insufficient funds\");\r\n        uint mysteryNumber_ = mysteryNumber();\r\n        bool isWinner = determineWinner(mysteryNumber_, display, guess);\r\n        Player storage player = players[msg.sender];\r\n        if (isWinner == true) {\r\n            /* Player won */\r\n            player.wins++;\r\n            msg.sender.transfer(wager * 2); // return the amount wagered plus the ether sent with the transaction\r\n            emit PlayerWon(msg.sender, msg.value, mysteryNumber_);\r\n            return true;\r\n        } else if (isWinner == false) {\r\n            /* Player lost */\r\n            player.losses++;\r\n            emit PlayerLost(msg.sender, msg.value, mysteryNumber_);\r\n            return false;\r\n        }\r\n    }\r\n\r\n    function withdrawFunds() public {\r\n        uint256 amount = address(this).balance;\r\n        require(msg.sender == owner, \"You are not the owner\");\r\n        owner.transfer(amount);\r\n    } \r\n}\r\n",
  "sourcePath": "C:\\Users\\Brian\\Documents\\EthBook\\contracts\\Gaming.sol",
  "compiler": {
    "name": "solc",
    "version": "0.5.16+commit.9c3226ce.Emscripten.clang"
  },
  "schemaVersion": "3.4.16",
  "updatedAt": "2023-09-26T13:44:48.656Z",
  "networkType": "ethereum",
  "devdoc": {
    "methods": {}
  },
  "userdoc": {
    "methods": {}
  }
}